:03000000020003F8
:10005C0002005F12006480FE7580FF120075E5805F
:10006C0025E0F58012007580F27A307B751ABAFFA4
:07007C00011BEA4B70F722A3
:06003200E478FFF6D8FDA2
:100010007900E94400601B7A00900087780075A0A1
:1000200000E493F2A308B8000205A0D9F4DAF2754F
:02003000A0FF2F
:100038007800E84400600A790075A000E4F309D864
:10004800FC7800E84400600C7900900000E4F0A31C
:04005800D8FCD9FAFD
:0D000300758107120083E582600302005F33
:040083007582002260
:00000001FF
